:02000000EF2AE5
:0E000600213083120313FD00FD0B07280800B4
:100014000F3083120313FC004730FD00FD0B102842
:0A002400FC0B10280000000008008B
:06002E00000000000800C4
:08003400FA1FF213003008006E
:10003C007B15FB1F28280130F300F201F101F001C0
:08004C00FA0DF20CFF30080070
:0E005400F201F101F001F801F30100300800A3
:1000620083120313F801F9011030FC00710DF80D31
:10007200F90D7408F8027508031C750FF9020318CC
:1000820049287408F80775080318750FF907031053
:0A009200F00DF10DFC0B37280800FB
:10009C0083120313C51B5428861155288615451B3E
:1000AC00592806115A280615C51A5E2886105F288D
:1000BC008614451A6328061064280614211868282B
:1000CC00061669280612861617208612C51970287E
:1000DC00861171288615451975280611762806157E
:1000EC00C5187A2886107B28861445187F28061098
:1000FC0080280614211884280616852806128616D0
:10010C0017208612211C8C280A208D280320080019
:10011C00FB14FB1F9828FF30F300F200F100F000F5
:08012C00FA0DF20CFF3008008F
:1001340083120313F20183161419A9281F30110521
:10014400F1007108003A031DA928FF30F20072087B
:04015400F0000800AF
:10015800A0017208031DC1287108F2007008F1009F
:10016800F001A0157208031DC1287108F200F10101
:10017800A011201672080319CF282008F302031DC6
:10018800031CD3280310F21BD728F00DF10DF20D34
:10019800F30BC728D3280130FC002A20DA280230C4
:0E01A800FC001E20DA280430FC001A2008009B
:1001B600831203137008F8007108F000F101F201D0
:1001C600F301FB01FC019630F300FA017008F1001F
:0C01D6007808F000F801F201AC200800ED
:0801E200831603131115080038
:1001EA00831203138C11410893008316141DFF28F0
:1001FA000000FA2883128C1904290000FF288316AC
:10020A00111B0929F1010C2911150230F10071089D
:04021A00F0000800E8
:10021E008312031321104108C5004E20211408003B
:10022E00831603139114911C1E2900001A2908002D
:10023E0083120313FB017308031D77080319762934
:10024E0072087606FA007708F3077E30031C33290E
:10025E00F302031879293629F302031C7C2972084C
:10026E00F8007108FC007008FD00F817F61703106F
:10027E00F201F101F0011830A0007D1C5029740824
:10028E00F00775080318750FF10776080318760F37
:10029E00F207F20CF10CF00CF80CFC0CFD0C031038
:1002AE00A00B4429F21B6029F80DF00DF10DF20D93
:1002BE00F3037B1B701C7229F81F7229F00A0319B5
:1002CE00F10A0319F20A031D7229F20CF10CF00C5B
:1002DE00F30A03197929FA1FF21300307E2901302F
:1002EE002A207E2902308E207E2904301E20000016
:0202FE000800F6
:10030000831203134308840020308000840A2030C5
:100310008000840A20308000840A20308000840A13
:1003200030308000840A8001840A04304307C4000E
:1003300000304206031D9E29003041060319C029E2
:100340000A30F400F5014108F0004208F1003120C4
:100350007808F0007908F1003030F0074408840094
:10036000700880000A30F400F5014108F0004208EE
:10037000F10031207008C1007108C200C40398293F
:02038000080073
:1003820083120313C201C3019A207008003A0319B1
:10039200CB29D82983124308123A031DD2298E3061
:1003A20042060319D829C20A0319C30AC5298312AE
:1003B20012304302031DDF298F304202031CE4295D
:1003C2007B30C100EC2983161114111CEA290000AC
:0C03D200E6298312C1014108F000080078
:1003DE00831203138C118316911583128C19F9292C
:1003EE000000F4291308F1008316911283124108BC
:1003FE00003A031D042A8316911683128C1183165C
:10040E00111683128C190D2A0000082A7108F000AB
:02041E000800D4
:10042000831203133D08013A031D192A8030BD00D1
:10043000302A3D08023A031D202AC030BD00302A70
:100440003D08033A031D272A9430BD00302A3D0899
:10045000043A031D2E2AD430BD00302A8030BD005E
:100460003E03F0003D08F0077008BD007008C500AD
:100470004E202110C00140083F0784000008003AC8
:1004800003194A2A40083F0784000008C1000F21D1
:08049000C00A3B2A21140800F8
:10049800831203132408F0002508F100DB200A303A
:1004A800F400D730F5002330F6007930F7001F212B
:1004B8003330F002031CF1039330F1027008A600F8
:1004C8007108A7007008C1007108C2002830C30075
:0404D8008021080077
:1004DC00C1215A30C100F52007308312C100F5202C
:1004EC0017215B308312C100F52001308312C1004B
:1004FC00EF217008AE000130C100EF217008AF0091
:10050C000130C100EF217008B000F12083122F08D8
:10051C00F100F00170082E04A40000307104A50055
:02052C000800C5
:10052E008316031386120612061086100611861104
:10053E0083128612061286110611861006100A20E4
:10054E000A200A20861406148616172086120A2000
:10055E008616172086120A208616172086120A2063
:10056E0006108616172086120A2086161720861267
:10057E00861086158616172086120A2086110614F6
:10058E0086161720861206108616172086120A2047
:10059E0086161720861206148616172086120A2033
:1005AE000610861617208612861506158614061452
:0C05BE008616172086120A20211408005F
:1005CA0083160313141394130716871538308312EE
:0405DA009400080081
:1005DE00831603178801890186018312031386018E
:1005EE00143083169300E5228316141797220130D8
:1005FE00C5004E200C30C5004E206E224C2201301C
:10060E00BD000130BE00313084006F308000840A9E
:10061E0062308000840A6A308000840A653080006F
:10062E00840A63308000840A74308000840A20308B
:10063E008000840A74308000840A65308000840A49
:10064E006D308000840A70308000840A8001840A34
:10065E003130BF0010220230BD000230BE00283003
:10066E00BF0010220630FB001330FC00AD30FD0041
:10067E00FD0B3F2BFC0B3F2BFB0B3F2B0000000019
:0A068E000130C5004E20042B4B2B59
:04400E00F42F000784
:00000001FF
